{
  "contractName": "Voting_V2",
  "abi": [
    {
      "constant": true,
      "inputs": [
        {
          "name": "",
          "type": "address"
        }
      ],
      "name": "votedAccount",
      "outputs": [
        {
          "name": "",
          "type": "bool"
        }
      ],
      "payable": false,
      "stateMutability": "view",
      "type": "function"
    },
    {
      "constant": true,
      "inputs": [
        {
          "name": "",
          "type": "bytes32"
        }
      ],
      "name": "votesReceived",
      "outputs": [
        {
          "name": "",
          "type": "uint256"
        }
      ],
      "payable": false,
      "stateMutability": "view",
      "type": "function"
    },
    {
      "constant": true,
      "inputs": [
        {
          "name": "",
          "type": "uint256"
        }
      ],
      "name": "candidateList",
      "outputs": [
        {
          "name": "",
          "type": "bytes32"
        }
      ],
      "payable": false,
      "stateMutability": "view",
      "type": "function"
    },
    {
      "inputs": [
        {
          "name": "candidateIDs",
          "type": "bytes32[]"
        }
      ],
      "payable": false,
      "stateMutability": "nonpayable",
      "type": "constructor"
    },
    {
      "anonymous": false,
      "inputs": [
        {
          "indexed": true,
          "name": "from",
          "type": "address"
        },
        {
          "indexed": true,
          "name": "toCandidates",
          "type": "bytes32[]"
        }
      ],
      "name": "VoteFor",
      "type": "event"
    },
    {
      "anonymous": false,
      "inputs": [
        {
          "indexed": false,
          "name": "target",
          "type": "address"
        },
        {
          "indexed": false,
          "name": "frozen",
          "type": "bool"
        }
      ],
      "name": "FrozenAccounts",
      "type": "event"
    },
    {
      "constant": true,
      "inputs": [
        {
          "name": "candidate",
          "type": "bytes32"
        }
      ],
      "name": "totalVotesFor",
      "outputs": [
        {
          "name": "",
          "type": "uint256"
        }
      ],
      "payable": false,
      "stateMutability": "view",
      "type": "function"
    },
    {
      "constant": false,
      "inputs": [
        {
          "name": "cadidates",
          "type": "bytes32[]"
        }
      ],
      "name": "voteForCandidates",
      "outputs": [],
      "payable": false,
      "stateMutability": "nonpayable",
      "type": "function"
    },
    {
      "constant": true,
      "inputs": [
        {
          "name": "candidate",
          "type": "bytes32"
        }
      ],
      "name": "validCandidate",
      "outputs": [
        {
          "name": "",
          "type": "bool"
        }
      ],
      "payable": false,
      "stateMutability": "view",
      "type": "function"
    },
    {
      "constant": false,
      "inputs": [
        {
          "name": "freeze",
          "type": "bool"
        }
      ],
      "name": "freezeAccount",
      "outputs": [],
      "payable": false,
      "stateMutability": "nonpayable",
      "type": "function"
    }
  ],
  "bytecode": "0x6060604052341561000f57600080fd5b60405161060b38038061060b833981016040528080518201919050508060009080519060200190610041929190610048565b50506100c0565b82805482825590600052602060002090810192821561008a579160200282015b82811115610089578251829060001916905591602001919060010190610068565b5b509050610097919061009b565b5090565b6100bd91905b808211156100b95760008160009055506001016100a1565b5090565b90565b61053c806100cf6000396000f300606060405260043610610083576000357c0100000000000000000000000000000000000000000000000000000000900463ffffffff16806302ac86e1146100885780632f265cf7146100d9578063392e6678146101145780637021939f14610153578063b13c744b1461018e578063b7288f02146101cd578063e17b240a146101f2575b600080fd5b341561009357600080fd5b6100bf600480803573ffffffffffffffffffffffffffffffffffffffff1690602001909190505061024c565b604051808215151515815260200191505060405180910390f35b34156100e457600080fd5b6100fe60048080356000191690602001909190505061026c565b6040518082815260200191505060405180910390f35b341561011f57600080fd5b6101396004808035600019169060200190919050506102a5565b604051808215151515815260200191505060405180910390f35b341561015e57600080fd5b610178600480803560001916906020019091905050610305565b6040518082815260200191505060405180910390f35b341561019957600080fd5b6101af600480803590602001909190505061031d565b60405180826000191660001916815260200191505060405180910390f35b34156101d857600080fd5b6101f060048080351515906020019091905050610341565b005b34156101fd57600080fd5b61024a60048080359060200190820180359060200190808060200260200160405190810160405280939291908181526020018383602002808284378201915050505050509190505061040a565b005b60026020528060005260406000206000915054906101000a900460ff1681565b6000610277826102a5565b151561028257600080fd5b600160008360001916600019168152602001908152602001600020549050919050565b600080600090505b6000805490508110156102fa5782600019166000828154811015156102ce57fe5b9060005260206000209001546000191614156102ed57600191506102ff565b80806001019150506102ad565b600091505b50919050565b60016020528060005260406000206000915090505481565b60008181548110151561032c57fe5b90600052602060002090016000915090505481565b80600260003373ffffffffffffffffffffffffffffffffffffffff1673ffffffffffffffffffffffffffffffffffffffff16815260200190815260200160002060006101000a81548160ff0219169083151502179055507f0a5b43af0ef09ecb703ee244f015ac762879d4da4b736850137608ea10ecc2a43382604051808373ffffffffffffffffffffffffffffffffffffffff1673ffffffffffffffffffffffffffffffffffffffff168152602001821515151581526020019250505060405180910390a150565b60008090505b81518110156104cc57610439828281518110151561042a57fe5b906020019060200201516104d0565b8160405180828051906020019060200280838360005b8381101561046a57808201518184015260208101905061044f565b5050505090500191505060405180910390203373ffffffffffffffffffffffffffffffffffffffff167f2ad578b2cc4a61f9c7e6f47529564777d6d1fca97ec63d244e20ecf6fda6928e60405160405180910390a38080600101915050610410565b5050565b6104d9816102a5565b15156104e457600080fd5b6001806000836000191660001916815260200190815260200160002060008282540192505081905550505600a165627a7a723058200acd10e9daadc9f56ebc9303c96404ea1c35d1513220faaff445974ea0d932950029",
  "source": "pragma solidity ^0.4.18;\r\n// We have to specify what version of compiler this code will compile with\r\n\r\ncontract Voting_V2 {\r\n    bytes32[] public candidateList;\r\n    /* mapping field below is equivalent to an associative array or hash.\r\n    The key of the mapping is candidate name stored as type bytes32 and value is\r\n    an unsigned integer to store the vote count\r\n    */\r\n\r\n    mapping (bytes32 => uint256) public votesReceived;\r\n    mapping (address => bool) public votedAccount;\r\n    /* Solidity doesn't let you pass in an array of strings in the constructor (yet).\r\n    We will use an array of bytes32 instead to store the list of candidates\r\n    */\r\n\r\n    event VoteFor(address indexed from, bytes32[] indexed toCandidates);\r\n    event FrozenAccounts(address target, bool frozen);\r\n\r\n    /* This is the constructor which will be called once when you\r\n    deploy the contract to the blockchain. When we deploy the contract,\r\n    we will pass an array of candidates who will be contesting in the election\r\n    */\r\n\r\n    function Voting_V2(bytes32[] candidateIDs) public {\r\n        candidateList = candidateIDs;\r\n    }\r\n\r\n    // This function returns the total votes a candidate has received so far\r\n    function totalVotesFor(bytes32 candidate)  public view returns (uint256) {\r\n        require(validCandidate(candidate));\r\n        return votesReceived[candidate];\r\n    }\r\n\r\n    // This function increments the vote count for the specified candidate.\r\n    function voteForCandidate(bytes32 candidate) private {\r\n        require(validCandidate(candidate));\r\n        votesReceived[candidate] += 1;\r\n    }\r\n\r\n    /** This function increments the vote for all the cadidate that sender vote for. */\r\n    function voteForCandidates(bytes32[] cadidates) public {\r\n        for (uint i = 0; i < cadidates.length; i++) {\r\n            voteForCandidate(cadidates[i]);\r\n            emit VoteFor(msg.sender, cadidates);\r\n        }\r\n    }\r\n\r\n    function validCandidate(bytes32 candidate) public view returns (bool) {\r\n        for (uint i = 0; i < candidateList.length; i++) {\r\n            if (candidateList[i] == candidate) {\r\n                return true;\r\n            }\r\n        }\r\n        return false;\r\n    }\r\n    /* freeze account of user if they've already voted */\r\n    function freezeAccount(bool freeze) public {\r\n        votedAccount[msg.sender] = freeze;\r\n        emit FrozenAccounts(msg.sender, freeze);\r\n    }\r\n}",
  "sourcePath": "C:\\Users\\khoic\\Desktop\\Working\\voting-contract\\contracts\\ver2-dev-voting.sol",
  "compiler": {
    "name": "solc",
    "version": "0.4.21+commit.dfe3193c.Emscripten.clang"
  },
  "schemaVersion": "2.0.0",
  "updatedAt": "2018-04-13T02:52:12.591Z"
}